:020000040800F2
:1000000018050020ED060008310200083302000840
:10001000370200083B0200083F0200080000000011
:100020000000000000000000000000004302000883
:1000300045020008000000004702000849020008CD
:100040000707000807070008070700080707000858
:100050000707000807070008070700080707000848
:100060000707000807070008070700080707000838
:100070000707000807070008070700080707000828
:100080000707000807070008070700080707000818
:100090000707000807070008070700080707000808
:1000A00007070008070700080707000807070008F8
:1000B00007070008070700080707000807070008E8
:1000C00007070008070700080707000807070008D8
:1000D000070700086306000807070008070700086D
:1000E00007070008070700080707000807070008B8
:1000F00007070008070700080707000807070008A8
:100100000707000807070008070700080707000897
:100110000707000807070008070700080707000887
:100120000707000807070008070700080707000877
:100130000707000807070008070700080707000867
:100140000707000807070008070700080707000857
:100150000707000807070008070700080707000847
:100160000707000807070008070700080707000837
:100170000707000807070008070700080707000827
:100180000707000807070008DFF80CD002F0B4FFEB
:1001900000480047190200081805002010B500208B
:1001A000214908604FF4FA7000F0D8F901201F4986
:1001B000C1F898024FF4FA7000F0D0F900201A4903
:1001C000091D08604FF4FA7000F0C8F901201749C2
:1001D000C1F89C024FF4FA7000F0C0F910BD10B5E0
:1001E00001F033FC01F06FFC01F0DBFC01F09DFD40
:1001F00001F0C8FE01F06FFE01F0B2FF01F0EDFF6B
:1002000002F00AF910BD10B5A82000F045F900F081
:1002100025F901F0ADFA10BDFFF7F5FF03E0FFF798
:10022000BDFFFFF7DCFFFAE79802404200004042C2
:10023000704700BFFEE700BFFEE700BFFEE700BF5C
:10024000FEE7704770477047704700000CB500200C
:10025000019000907648006840F48030744908604E
:1002600000BF7348006800F4003000900198401C03
:100270000190009818B90198B0F5A04FF1D16C48E1
:10028000006800F4003010B10120009001E000206F
:1002900000900098012846D165484030006840F041
:1002A00080506349403108606248006840F4404033
:1002B000604908605E48083000685D4908310860A0
:1002C0000846006840F4004008600846006840F4B2
:1002D000A05008605848091F0860081F006840F0D7
:1002E0008070091F086000BF5148006800F000706E
:1002F0000028F9D040F20570504908604C48083099
:10030000006820F003004A49083108600846006888
:1003100040F00200086000BF45480830006800F067
:100320000C000828F8D10CBD10B54548006840F411
:100330007000434908603E48006840F001003C49B5
:10034000086000203A4908310860394800683D4992
:100350000840374908603C48091D0860081F0068CC
:1003600020F48020091F0860002031490C3108600A
:10037000FFF76CFF4FF0006031498039086010BD15
:1003800070B500200022022300240221284D0835E8
:100390002D6805F00C0020B1042806D0082834D1BF
:1003A00007E02A4D2A4E356033E02A4D284E35604D
:1003B0002FE01F4D2D1D2D68C5F380541C4D2D1DA4
:1003C0002D6805F03F0154B1224DB5FBF1F5184EF3
:1003D000361D3668C6F3881605FB06F209E01B4D8C
:1003E000B5FBF1F5124E361D3668C6F3881605FBCF
:1003F00006F20F4D2D1D2D68C5F301456D1C6B00D8
:10040000B2FBF3F5124E356003E0104D104E35602F
:1004100000BF00BF064D08352D68C5F303150E4E0D
:10042000705D0B4D2D68C540094E356070BD0000F4
:10043000003802400070004008544007003C024071
:1004400088ED00E0FFFFF6FE103000240024F400E9
:100450000000002000127A00040000201CB50121D9
:10046000084600F0E9FCC020009001208DF804004F
:1004700000208DF8060003208DF8050001208DF87E
:1004800007006946034800F039FAC021014800F02E
:10049000B1FA1CBD0000024010B504466FF0040024
:1004A00000F088F9E11704EB5171C1F3C701394A33
:1004B00011701046007800EB4001C1EBC0104FF600
:1004C000FF7101EAC0003449088010BD0146314A7D
:1004D00012784A434FF0E0235A6100229A611A468B
:1004E000126942F001021A6100BF4FF0E022106968
:1004F00000F001021AB100F48032002AF5D04FF06A
:10050000E022126922F001024FF0E0231A6100227A
:100510009A6170470146204A12884A434FF0E0230F
:100520005A6100229A611A46126942F001021A6168
:1005300000BF4FF0E022106900F001021AB100F490
:100540008032002AF5D04FF0E022126922F0010239
:100550004FF0E0231A6100229A61704770B504469B
:100560004FF4077094FBF0F0C6B24FF4077094FBA1
:10057000F0F100FB114085B205E04FF40770FFF782
:10058000C9FF701EC6B2002EF7D115B12846FFF77D
:10059000C1FF70BD140000201600002000BF70478E
:1005A00000BF4E4A128802F04002002AF9D0C2B2BF
:1005B0004A4B9A80704710B588B00446012108461E
:1005C00000F03AFC0121102000F090FC07220921E4
:1005D000434800F01EFA07220A21414800F019FAA8
:1005E0004FF4C060069002208DF81C008DF81D00AD
:1005F00000208DF81E0001208DF81F0006A9384844
:1006000000F07CF902940020ADF80C00ADF80E006B
:10061000ADF81000ADF814000C20ADF8120002A9DE
:100620002E4800F0C4FD01212C4800F048FE402176
:100630002A4800F02CFF012240F22551274800F003
:10064000F4FE25208DF8040003208DF805008DF8B8
:10065000060001208DF8070001A800F05EF808B040
:1006600010BD10B540F225511C4800F019FF10B321
:100670001A4800F053FEC4B21A48008800F4004043
:10068000C8B91848008800F4804060B10A2C03D033
:1006900000201449088020E01248008840F40040FF
:1006A0001049088019E00D2C06D10E48008840F44E
:1006B00080400C49088010E00A480088C0F30D0013
:1006C00009490C5407480088401C06490880084620
:1006D0000088C72801DD0020088010BD00100140FF
:1006E000000002401C000020400000200648804717
:1006F00006480047FEE7FEE7FEE7FEE7FEE7FEE707
:10070000FEE7FEE7FEE7FEE729030008890100088F
:1007100032490143324A1160704770B5002100230D
:100720000F22C4781CB32E4C246804F4E064C4F592
:10073000E064C4F30721C1F10404E3B20A41447840
:100740009C40E1B28478144021430C07210E254CD3
:1007500005786155047804F01F050124AC40057844
:100760006D11AD0005F1E025C5F8004109E0047800
:1007700004F01F050124AC401B4D0678761145F8A6
:10078000264070BD194A0A400243154B1B1F1A60D0
:10079000704739B1124A121D12680243104B1B1DDB
:1007A0001A6006E00E4A121D126882430C4B1B1D94
:1007B0001A607047042808D14FF0E021096941F020
:1007C00004014FF0E022116107E04FF0E0210969D8
:1007D00021F004014FF0E022116170470000FA059A
:1007E0000CED00E000E400E080E100E080FFFF1F8E
:1007F00010B504469848844208D10121084600F00B
:1008000086FB0021012000F082FB76E093488442C1
:1008100008D10121022000F07AFB0021022000F023
:1008200076FB6AE08E48844208D10121042000F062
:100830006EFB0021042000F06AFB5EE089488442E0
:1008400008D10121082000F062FB0021082000F0FF
:100850005EFB52E08448844208D10121102000F060
:1008600056FB0021102000F052FB46E07F488442F6
:1008700008D10121202000F04AFB0021202000F0B7
:1008800046FB3AE07A48844208D10121402000F03A
:100890003EFB0021402000F03AFB2EE075488442E8
:1008A00008D10121802000F032FB0021802000F0DF
:1008B0002EFB22E07048844208D10121801500F00F
:1008C00026FB0021A01500F022FB16E06B488442B5
:1008D00008D10121401500F01AFB0021601500F03D
:1008E00016FB0AE06648844207D10121001500F09A
:1008F0000EFB0021201500F00AFB10BDF0B50A46E2
:1009000000210023002400BF3DE0012505FA01F38A
:10091000156805EA03049C4234D105684F0003269C
:10092000BE40B543056015794E00B54006683543B5
:1009300005601579012D02D01579022D16D1856833
:100940004F000326BE40B543856055794E00B54043
:10095000866835438560456801268E40B54345600D
:10096000456896798E40B6B235434560C5684F00FC
:100970000326BE40B543C560D5794E00B540C66874
:100980003543C560491C1029BFD3F0BD4FF6FF7138
:1009900001600021017141718171C171704708B519
:1009A0004FF480320092009A0A430092009AC2618A
:1009B000C161009AC261C2690092C269009208BD19
:1009C0000246002013690B400BB1012000E000201B
:1009D00070470146086980B270470246002053699B
:1009E0000B400BB1012000E0002070470146486930
:1009F00080B2704701837047418370470AB1018319
:100A000000E0418370474161704742694A4042615A
:100A10007047F0B5002300244D07ED0E02FA05F3F0
:100A2000CE1000F1200555F826504E07F70E0F2680
:100A3000BE40B543CF1000F1200646F82750CE1037
:100A400000F1200555F8265045EA0304CE1000F1C8
:100A5000200545F82640F0BD000002400004024099
:100A600000080240000C0240001002400014024046
:100A700000180240001C02400020024000240240F6
:100A800000280240F948006840F00100F74908607A
:100A90000020F64908310860F4480068F44908402D
:100AA000F2490860F348091D0860F348EF498431B2
:100AB0000860F0481038091D0860EC48006820F410
:100AC0008020EA4908600020E8490C310860E749C5
:100AD0008C31086070470021E44A921C1170114665
:100AE0000870704710B501460022002300204A110B
:100AF000012A02D1DD4C236808E0022A03D1DB4C35
:100B00007034236802E0D94C7434236801F01F026A
:100B1000012494401C400CB1012000E0002010BDD5
:100B200038B5002000900024002500BF3120FFF7D9
:100B3000D9FF05460098401C00900098B0F5A04FE2
:100B400001D0002DF2D03120FFF7CCFF08B10124F5
:100B500000E00024204638BD01460020C34A10684A
:100B600020F0F80040EAC10010607047C3490860F7
:100B700070470021BD4A703211701170012802D0F7
:100B800004280AD104E00121B84A7032117005E04E
:100B90000521B64A7032117000E000BF00BF7047F7
:100BA000B7490860704770B5049C41EA8215012678
:100BB000C6EB530645EA0645054345EA0465AB4ED8
:100BC000361D356070BDAD4908667047820142EA46
:100BD0000172A64B84331A607047A8498866704733
:100BE00010B5830143EA016343EA02739F4C8834E2
:100BF000236010BDA14908677047A049C8647047C9
:100C000002460020994B0833186820F0EC6042EA55
:100C100001031843954B08331860704702460020C3
:100C2000924B0833186820F0784042EA01031843D9
:100C30008E4B083318607047014600208B4A0832FB
:100C4000106820F0030008431060704787480830A0
:100C5000006800F00C00704701460020834A08320B
:100C6000106820F0F0000843106070470146002033
:100C70007E4A0832106820F4E05008431060704744
:100C800001460020794A0832106820F4604040EAAA
:100C9000C10010607047F0B5002100220024022539
:100CA00000260223714F08373F6807F00C0121B17D
:100CB000042905D0082937D105E0724F076036E0D6
:100CC000714F076033E0694F3F1D3F68C7F380569F
:100CD000664F3F1D3F6807F03F036EB16A4FB7FB99
:100CE000F3F7DFF888C10CF1040CDCF800C0CCF39A
:100CF000881C07FB0CF40CE0624FB7FBF3F7DFF83E
:100D00006CC10CF1040CDCF800C0CCF3881C07FBB0
:100D10000CF4564F3F1D3F68C7F301477F1C7D0011
:100D2000B4FBF5F7076002E0564F076000BF00BF55
:100D30004E4F08373F6807F0F0010909534F7A5CBE
:100D40000768D7404760494F08373F6807F4E051CC
:100D5000890A4E4F7A5C4768D7408760434F08370F
:100D60003F6807F46041490B484F7A5C4768D740B9
:100D7000C760F0BD002100F44072B2F5407F0AD197
:100D80003A4A0832116821F4F811414A02401143ED
:100D9000364A08321160354A70321268C0F30B03CC
:100DA0001A43324B70331A60704735494439086032
:100DB00070473349403908607047364908607047CA
:100DC00001460020294A8C32106820F01F004A1E7C
:100DD0001043264A8C321060704701460020234A97
:100DE0008C32106820F4F8504A1E40EA02201F4A54
:100DF0008C3210607047014600201C4A8C3210680B
:100E000020F4401008431060704701460020174A44
:100E10008C32106820F4400008431060704701468F
:100E20000020124A8C32106820F4403008431060D1
:100E3000704719490860704739B10C4A303212685E
:100E400002430A4B30331A6006E0084A3032126817
:100E50008243064B30331A607047F9B1034A34328B
:100E600012680243014B34331A601CE00038024020
:100E7000FFFFF6EA10300024003000200000474257
:100E8000800E47420024F40000127A001E00002069
:100E9000FFFCFF0F5C014742E01147428F4A126896
:100EA00082438E4B1A60704739B18C4A121D12680A
:100EB00002438A4B1B1D1A6006E0884A121D126805
:100EC0008243864B1B1D1A60704739B1834A0C322E
:100ED00012680243814B0C331A6006E07F4A0C32E1
:100EE000126882437D4B0C331A60704739B17B4ADC
:100EF000103212680243794B10331A6006E0774AC9
:100F0000103212688243754B10331A60704739B142
:100F1000724A243A12680243704B243B1A6006E07E
:100F20006E4A243A126882436C4B243B1A60704725
:100F300039B16A4A203A12680243684B203B1A6072
:100F400006E0664A203A12688243644B203B1A60EE
:100F5000704739B1614A1C3A126802435F4B1C3B2F
:100F60001A6006E05D4A1C3A126882435B4B1C3BE8
:100F70001A60704739B1594A143A12680243574B04
:100F8000143B1A6006E0554A143A12688243534BE8
:100F9000143B1A60704739B1504A103A1268024344
:100FA0004E4B103B1A6006E04C4A103A12688243DE
:100FB0004A4B103B1A60704739B1484A1C321268DC
:100FC0000243464B1C331A6006E0444A1C32126846
:100FD0008243424B1C331A60704739B13F4A20327A
:100FE000126802433D4B20331A6006E03B4A203230
:100FF00012688243394B20331A60704739B1374A3F
:10100000243212680243354B24331A6006E0334A17
:10101000243212688243314B24331A60704739B14D
:101020002E4A2C32126802432C4B2C331A6006E0F5
:101030002A4A2C3212688243284B2C331A6070479C
:1010400039B1264A303212680243244B30331A60D9
:1010500006E0224A303212688243204B30331A6055
:101060007047012808D11D493C31096841F0080149
:101070001A4A3C32116007E018493C31096821F0F6
:101080000801164A3C321160704739B1134A273AB9
:1010900012780243114B273B1A7006E00F4A273A99
:1010A000127882430D4B273B1A7070470B48403033
:1010B000006840F08070094940310860704701467F
:1010C0000020064A283A12680A400AB1012000E0CE
:1010D00000207047014926390870704734380240B3
:1010E00010B50446FA48844208D101211020FFF7C8
:1010F00052FF00211020FFF74EFF57E0F5488442D1
:1011000009D101214804FFF735FF00214FF40030D9
:10111000FFF730FF4AE0F048844209D101218804FA
:10112000FFF728FF00214FF48020FFF723FF3DE069
:10113000EA48844209D10121C804FFF71BFF0021BE
:101140004FF40020FFF716FF30E0E548844209D154
:1011500001210805FFF70EFF00214FF48010FFF773
:1011600009FF23E0DF48844208D101212020FFF756
:1011700012FF00212020FFF70EFF17E0DA4884421B
:1011800009D101218807FFF7F5FE00214FF08040CB
:10119000FFF7F0FE0AE0D548844207D1012140055F
:1011A000FFF7E8FE00216005FFF7E4FE10BD2DE922
:1011B000FF4705460E460024A14600BFA046B08961
:1011C00000B100BF2C8A24F44054F08804432C82E0
:1011D000AC8941F20C608443B0883189084371893D
:1011E00008430443AC81AC8A24F44074B0890443BE
:1011F000AC826846FFF74FFDB548854202D0B9483A
:10120000854202D1DDF80C9001E0DDF80890A88954
:1012100000F4004040B109EBC90000EB091031684F
:101220004900B0FBF1F707E009EBC90000EB09103A
:1012300031688900B0FBF1F76420B7FBF0F00401DE
:101240002009642101FB1078A88900F4004040B116
:10125000322000EBC800B0FBF1F000F007000443BF
:1012600008E0322000EB08106421B0FBF1F000F040
:101270000F0004432C81BDE8FF874FF41651016035
:1012800000218180C18001810C2141810021818167
:10129000704710B502460020108A20F470600B8859
:1012A0004C8823438C882343CC88234318431082E3
:1012B00010BD0021018041808180C180704721B133
:1012C000828942F40052828104E082894DF6FF73E4
:1012D0001A4082817047028B02F47F420283028BA4
:1012E0000A430283704721B1828942F4004282811D
:1012F00003E08289C2F30E028281704721B1828AA3
:1013000042F40062828204E0828A4FF2FF731A4044
:1013100082827047C1F30802828070470146888844
:10132000C0F308007047028A4FF6F0731A40028239
:10133000028A0A430282704721B1828942F0020286
:10134000828104E082894FF6FD731A4082817047E2
:1013500082894FF2FF731A40828182890A43828117
:101360007047028A4FF6DF731A400282028A0A43EC
:101370000282704721B1028A42F48042028204E074
:10138000028A4BF6FF731A4002827047818941F04E
:1013900001018181704721B1828A42F00802828274
:1013A00004E0828A4FF6F7731A4082827047028BFC
:1013B000D2B20283028B42EA01220283704721B13A
:1013C000828A42F02002828204E0828A4FF6DF7332
:1013D0001A408282704721B1828A42F010028282D2
:1013E00004E0828A4FF6EF731A4082827047828A45
:1013F0004FF6FB731A408282828A0A4382827047C8
:1014000021B1828A42F00202828204E0828A4FF68F
:10141000FD731A40828270471AB1838A0B4383821C
:1014200002E0838A8B4383827047F0B50346002431
:1014300000260025002040F66A17B94200D100BFFF
:101440001846C1F3421401F01F06012707FA06F5FA
:10145000012C01D10C3004E0022C01D1103000E04D
:1014600014301AB107682F43076002E00768AF43E2
:101470000760F0BD02460020B1F5007F00D100BF3B
:1014800013880B400BB1012000E00020704701F4ED
:101490000072B2F5007F00D100BFCA4302807047DE
:1014A00070B50246002400230025002040F66A168D
:1014B000B14200D100BFC1F3421501F01F03012664
:1014C00006FA03F3012D13D19689334017E000008B
:1014D000001001400044004000480040004C004023
:1014E000005000400014014000780040007C0040A3
:1014F000022D02D1168A334001E0968A33400C1245
:10150000012606FA04F41688344013B10CB1012008
:1015100000E0002070BD10B50022002340F66A14E0
:10152000A14200D100BF0A1201249440A3B2DC43BF
:10153000048010BD10B504460020FE490860FE4935
:10154000C1F8B802204601F0AFFD0120F94908605A
:1015500010BD10B504460020F64908600120F64988
:10156000C1F8B802204601F09FFD0120F149086052
:1015700010BD70B505460C462846FFF7DBFFE0B20C
:10158000FFF7E7FF70BD10B5EC49087AFFF7D2FF0F
:1015900010BD10B504460020E64908600120E64968
:1015A000C1F8B802201201F07FFDE0B201F07CFD2D
:1015B0000120E049086010BD2DE9F04104460D46C8
:1015C00016461F46DD49887AFFF7B4FF2012FFF761
:1015D000C0FFE0B2FFF7BDFF3012FFF7BAFFF0B275
:1015E000FFF7B7FFD549087BFFF7A4FF2812FFF7E5
:1015F000B0FFE8B2FFF7ADFF3812FFF7AAFFF8B26D
:10160000FFF7A7FFFFF7BFFFBDE8F08170B5044605
:101610000D462B46224629462046FFF7CDFF70BDDA
:1016200070B504460D4629462046FFF7EFFFC44833
:101630000088FFF7AEFF70BD70B50646BF48408812
:10164000401E83B2BD480088401E82B20021084679
:10165000FFF7B2FF0020B74908600120B649C1F882
:10166000B80200240AE0002503E03046FFF791FFAE
:101670006D1CB2480088A842F7D8641CAF48408867
:10168000A042F0D80120AB49086070BD1CB5012113
:101690000220FFF7D1FB4FF22800009001208DF8C7
:1016A000040003208DF8050000208DF806000120BD
:1016B0008DF807006946A348FFF720F91020009035
:1016C00000208DF8040069469E48FFF717F91CBDFD
:1016D00010B5002097490C3908606420FEF73EFFE2
:1016E00001209549C1F8B0023220FEF737FF10BD46
:1016F00010B504462A20914948812B2088812C204E
:10170000088134B1012C0FD0022C18D0032C2CD11D
:1017100020E0F020894908804FF4A070488008211B
:101720003620FFF726FF21E04FF4A07083490880A0
:10173000F020488068213620FFF71BFF16E0F020DC
:101740007E4908804FF4A0704880C8213620FFF7FA
:1017500010FF0BE04FF4A07078490880F02048801B
:10176000A8213620FFF705FF00E000BF00BF10BD35
:1017700010B5FFF78BFFFFF7ABFFCF20FFF7DAFEC7
:101780000020FFF7E6FEC920FFF7E3FE3020FFF759
:10179000E0FEED20FFF7CEFE6420FFF7DAFE032027
:1017A000FFF7D7FE1220FFF7D4FE8120FFF7D1FE0E
:1017B000E820FFF7BFFE8520FFF7CBFE1020FFF7E4
:1017C000C8FE7A20FFF7C5FECB20FFF7B3FE392015
:1017D000FFF7BFFE2C20FFF7BCFE0020FFF7B9FE8D
:1017E0003420FFF7B6FE0220FFF7B3FEF720FFF725
:1017F000A1FE2020FFF7ADFEEA20FFF79BFE0020B0
:10180000FFF7A7FE0020FFF7A4FEC020FFF792FE1F
:101810001B20FFF79EFEC120FFF78CFE0020FFF784
:1018200098FEC520FFF786FE3020FFF792FE30209D
:10183000FFF78FFEC720FFF77DFEB720FFF789FE79
:101840003620FFF777FE0820FFF783FE3A20FFF7E8
:1018500071FE5520FFF77DFEB120FFF76BFE0020E3
:10186000FFF777FE1A20FFF774FEB620FFF762FE3F
:101870000A20FFF76EFEA220FFF76BFEF220FFF7B3
:1018800059FE0020FFF765FE2620FFF753FE0120DA
:10189000FFF75FFEE020FFF74DFE0F20FFF759FE38
:1018A0002A20FFF756FE2820FFF753FE0820FFF7F7
:1018B00050FE0E20FFF74DFE0820FFF74AFE542091
:1018C000FFF747FEA920FFF744FE4320FFF741FE44
:1018D0000A20FFF73EFE0F20FFF73BFE0020FFF738
:1018E00038FE0020FFF735FE0020FFF732FE002013
:1018F000FFF72FFEE120FFF71DFE0020FFF729FE76
:101900001520FFF726FE1720FFF723FE0720FFF71D
:1019100020FE1120FFF71DFE0620FFF71AFE2B20E8
:10192000FFF717FE5620FFF714FE3C20FFF711FECD
:10193000052009E0BC8240420080404208010020AE
:101940002E00002000040240FFF703FE1020FFF7E6
:1019500000FE0F20FFF7FDFD3F20FFF7FAFD3F20BF
:10196000FFF7F7FD0F20FFF7F4FD2B20FFF7E2FD57
:101970000020FFF7EEFD0020FFF7EBFD0120FFF751
:10198000E8FD3F20FFF7E5FD2A20FFF7D3FD00200B
:10199000FFF7DFFD0020FFF7DCFD0020FFF7D9FD9A
:1019A000EF20FFF7D6FD1120FFF7C4FD7820FEF7EA
:1019B000D5FD2920FFF7BEFD0020FFF799FE01208D
:1019C000034908604FF6FF70FFF736FE10BD0000B8
:1019D000B48240423EB504464FF6FF70FFF72CFE3E
:1019E0001F200090FE48028814230021084600F0C2
:1019F00063FD1F200090FA4843880288408814380D
:101A000081B2002000F058FD4FF6FF70F5490880C4
:101A1000012010211F234FF6FF72CDE900410290F3
:101A20000221002001F0EDFA01201021EEA2CDE903
:101A300000210290EA484088123881B21F234FF6F5
:101A4000FF72002001F0DDFA3EBD0EB5ECA0FFF7FD
:101A5000C1FF01201021F0A21F23CDE90021029037
:101A6000DA021E21002001F0CCFA01201021E6A2AA
:101A70001F23CDE900210290DA023C21002001F071
:101A8000C0FA01201021E7A21F23CDE90021029016
:101A90004FF4FC625A21002001F0B3FA012010211A
:101AA000E6A21F23CDE9002102901A4678210020EA
:101AB00001F0A7FA40F2DC50FEF750FD40F2DC5096
:101AC000FEF74CFD0EBD0EB54FF6FF700090C448FA
:101AD000438802880021084600F0EEFC0120102116
:101AE000DCA24FF6E073CDE9002102901F221E21F7
:101AF000142001F002FA4FF44870FEF72FFD4FF466
:101B000078400090B648438802880021084600F0DB
:101B1000D3FC01201021D1A24FF6E073CDE90021C2
:101B200002901F221E21142001F0E7F94FF44870A3
:101B3000FEF714FD4FF4FC600090A948438802882A
:101B40000021084600F0B8FC01201021C5A24FF684
:101B5000E073CDE9002102901F221E21142001F024
:101B6000CCF94FF44870FEF7F9FC1F2000909C4818
:101B7000438802880021084600F09EFC01201021C5
:101B8000BAA24FF6E073CDE9002102904FF47842FB
:101B90001E21142001F0B1F94FF44870FEF7DEFC6D
:101BA0000EBD2DE9F8430024B2A0FFF713FF4FF656
:101BB000FF7000908A484088143883B288480288B1
:101BC0001421002000F078FC00BF48E0AF4830F856
:101BD000140084490880DFF808C2BCF8025005EB05
:101BE000D57C4FEA6C0CACF1500CC4EB0419CC441E
:101BF0000CF13C0C1FFA8CF3DFF8E4C1BCF8006078
:101C000006EBD67C4FEA6C0CACF1500CC4EB04191B
:101C1000CC440CF13C0C1FFA8CF2DFF8C4C1BCF8C8
:101C2000027007EBD77C4FEA6C0CACF1500CC4EBA4
:101C30000419CC441FFA8CF1DFF8A4C1BCF8008071
:101C400008EBD87C4FEA6C0CACF1500CC4EB0419D7
:101C5000CC441FFA8CF000F0BEFC601CC4B2052C12
:101C6000B4DB40F2DC50FEF779FC4FF6FF700090D9
:101C70005B484088143883B25948028814210020F8
:101C800000F01AFC002448E0804830F81400554960
:101C90000880DFF84CC1BCF8026006EBD67C4FEA46
:101CA0006C0CACF1500CC4EB0419CC440CF13C0CA2
:101CB0001FFA8CF3DFF828C1BCF8007007EBD77C63
:101CC0004FEA6C0CACF1500CC4EB0419CC440CF191
:101CD0003C0C1FFA8CF2DFF808C1BCF8028008EB5C
:101CE000D87C4FEA6C0CACF1500CC4EB0419CC441A
:101CF0001FFA8CF1DFF8E8C0BCF8005005EBD57C8A
:101D00004FEA6C0CACF1500CC4EB0419CC441FFA34
:101D10008CF000F080FC601CC4B2052CB4DB40F2F7
:101D2000DC50FEF71BFCBDE8F883F8B5002458A092
:101D3000FFF750FE4FF6FF70009029484088143896
:101D400083B2274802881421002000F0B5FB00BFB1
:101D50001FE00020224B00905D8805EBD5735B10DF
:101D6000323B04EBC40707EB0417D9191C4B1E8840
:101D700006EBD6735B10503B04EBC40707EB04176C
:101D8000D819424B33F814201E2300F095FC601C38
:101D9000C4B2052CDDDB40F2DC50FEF7DFFB4FF672
:101DA000FF7000900E484088143883B20C480288B7
:101DB0001421002000F080FB002484E00120084B67
:101DC00000905D8805EBD5735B10323B04EBC407D4
:101DD00007EB0417D919024B1E8806EBD67363E094
:101DE000080100202E000020687474703A2F2F77AD
:101DF00077772E6C636477696B692E636F6D000073
:101E0000C8ABB6AFB5E7D7D3D7DBBACFB2E2CAD447
:101E1000B3CCD0F200000000C8ABB6AFB5E7D7D363
:101E200000000000322E382220494C493933343129
:101E300020323430583332300000000042792077AD
:101E4000616E677A697875616E2032303231303276
:101E500030320000424C20546573740052454420D7
:101E600000000000475245454E200000424C5545B9
:101E700020000000B2E2CAD4323A475549BED8D059
:101E8000CECCEEB3E4B2E2CAD400000034000020AD
:101E9000B2E2CAD4333A475549BBADD4B2CCEEB363
:101EA000E4B2E2CAD40000005B10503B04EBC4076C
:101EB00007EB0417D819E84B33F814201E2300F061
:101EC000FBFB601CC4B2052CFFF678AF40F2DC507F
:101ED000FEF744FBF8BD0EB5E0A0FFF77BFD002048
:101EE0000C21E3A24FF6E073CDE9002102901F22FE
:101EF0001E210A2001F001F801200C21E7A24FF673
:101F0000E073CDE9002102901F222D210A2000F06C
:101F1000F4FF00200C21ECA24FF6E073CDE9002184
:101F200002901F223C210A2000F0E7FF0020102130
:101F3000EDA24FF6E073CDE9002102901F2250215F
:101F40000A2000F0DAFF01201021F2A24FF6E07320
:101F5000CDE9002102901F2264210A2000F0CDFF6C
:101F600000201021F6A24FF6E073CDE90021029087
:101F70001F2278210A2000F0C0FF4FF49660FEF780
:101F8000EDFA0EBD2DE9FC5F0024F5A0FFF722FD60
:101F90004FF6FF700090F9484088143883B2F74834
:101FA00002881421002000F087FA00BF5DE0AA48F3
:101FB00030F81400F2490880F048458805EBD570E8
:101FC00040101438C4EB0411084481B2EB48068871
:101FD00006EBD6704010153804EB840200EB82004B
:101FE00080B2DFF898C3CDE90001BCF8027007EBBE
:101FF000D77C4FEA6C0CACF1490CC4EB041BDC44FD
:102000001FFA8CF3DFF874C3BCF8008008EBD87CAF
:102010004FEA6C0CACF1330C04EB840B0CEB8B0C27
:102020001FFA8CF2DFF854C3BCF8029009EBD97C9C
:102030004FEA6C0CACF1140CC4EB041BDC441FFA2B
:102040008CF1DFF838C3BCF800A00AEBDA7C4FEA69
:102050006C0CACF1500C04EB840B0CEB8B0C1FFAEA
:102060008CF000F076FB601CC4B2052C9FDB40F2C4
:10207000DC50FEF773FA4FF6FF700090BF484088BF
:10208000143883B2BD4802881421002000F014FAED
:1020900000245DE0704830F81400B9490880B74862
:1020A000458805EBD57040101438C4EB0411084482
:1020B00081B2B248068806EBD6704010153804EBA2
:1020C000840200EB820080B2DFF8B0C2CDE90001EB
:1020D000BCF8027007EBD77C4FEA6C0CACF1490CF2
:1020E000C4EB041BDC441FFA8CF3DFF890C2BCF88D
:1020F000008008EBD87C4FEA6C0CACF1330C04EB9D
:10210000840B0CEB8B0C1FFA8CF2DFF870C2BCF85E
:10211000029009EBD97C4FEA6C0CACF1140CC4EBC7
:10212000041BDC441FFA8CF1DFF850C2BCF800A09D
:102130000AEBDA7C4FEA6C0CACF1500C04EB840B2C
:102140000CEB8B0C1FFA8CF000F024FB601CC4B26B
:10215000052C9FDB40F2DC50FEF700FABDE8FC9F47
:102160000EB588A0FFF736FC002010218AA24FF69A
:10217000E073CDE9002102901F221E210A2000F009
:10218000BCFE002010218DA24FF6E073CDE90021A6
:1021900002901F2232210A2000F0AFFE01201821F8
:1021A0008CA24FF6E073CDE9002102901F22462158
:1021B0000A2000F0A2FE012020218CA24FF6E0733D
:1021C000CDE9002102901F2264210A2000F095FE33
:1021D0004FF49660FEF7C2F90EBD0EB587A0FFF76B
:1021E000F9FB8B4A1E21084600F029FF012010212F
:1021F00088A24FF6E073CDE9002102901F224B2107
:102200002A2000F07AFE824A1E215A2000F017FF91
:10221000012010217FA24FF6E073CDE9002102904A
:102220001F224B21662000F068FE794A1E2196206D
:1022300000F005FF0120102176A24FF6E073CDE9F2
:10224000002102901F224B21A22000F056FE4FF4E5
:102250009660FEF783F90EBD34000020B2E2CAD4C6
:10226000353AD3A2CEC4CFD4CABEB2E2CAD400009B
:10227000365831323A6162636465666768696A6BD1
:102280006C6D6E6F707172737475767778797A3061
:102290003132333435363738390000003658313270
:1022A0003A4142434445464748494A4B4C4D4E4FBC
:1022B000505152535455565758595A30313233347D
:1022C0003536373839000000365831323A7E2140F1
:1022D0002324255E262A28295F2B7B7D3A3C3E3F1E
:1022E0002F7C2D2B2E000000385831363A61626366
:1022F0006465666768696A6B6C6D6E6F7071727326
:102300007475767778797A303132333435363738B8
:1023100039000000385831363A4142434445464777
:1023200048494A4B4C4D4E4F5051525354555657B5
:1023300058595A3031323334353637383900000085
:10234000385831363A7E21402324255E262A282912
:102350005F2B7B7D3A3C3E3F2F7C2D2B2E000000D7
:10236000B2E2CAD4343A47554920547269616E6763
:102370006C65CCEEB3E4B2E2CAD4000008010020E0
:102380002E000020B2E2CAD4363AD6D0CEC4CFD482
:10239000CABEB2E2CAD4000031365831363AC8ABB0
:1023A000B6AFB5E7D7D3BCBCCAF5D3D0CFDEB9AB97
:1023B000CBBEBBB6D3ADC4FA0000000031365831F5
:1023C000363A57656C636F6D65C8ABB6AFB5E7D786
:1023D000D300000032345832343AC9EEDBDACAD0C6
:1023E000D6D0CEC4B2E2CAD4000000003332583393
:1023F000323AD7D6CCE5B2E2CAD40000B2E2CAD4AF
:10240000373ACDBCC6ACCFD4CABEB2E2CAD4000003
:102410003C3100085151000010B588B00024194B20
:102420000FCBCDE90623CDE9040100BF23E0204610
:10243000FFF75EF914A0FFF7CDFA0121102204A8DE
:1024400050F824004FF6E073CDE9012100901F22DF
:102450001E21142000F051FD104A32211E2000F0F0
:10246000EEFD4FF47A70FEF779F84FF47A70FEF7CC
:1024700075F8601CC4B2042CD9DB0020FFF738F9D2
:1024800008B010BDBC3D0008B2E2CAD4383AC6C19B
:10249000C4BBD0FDD7AAB2E2CAD400003C310008C8
:1024A00070B505460E46144631462846FFF7AEF88D
:1024B0002046FFF76EF870BD2DE9F05F04460D462B
:1024C00016461F46301B401C1FFA80FA781B401C22
:1024D0001FFA80FB3B46324629462046FFF76CF840
:1024E0004FF000080FE04FF0000906E00A98FFF7F0
:1024F00050F809F101001FFA80F9D145F6DB08F127
:1025000001001FFA80F8D845EDDBFE484088401EE8
:1025100083B2FC480088401E82B200210846FFF7C3
:102520004BF8BDE8F09F2DE9FF4F85B081468A4604
:102530000020049003900798A0EB09050898A0EBF1
:102540000A06CDF80890CDF804A0002D01DD012782
:1025500005E00DB9002702E04FF0FF376D42002E75
:1025600002DD4FF0010806E016B94FF0000802E066
:102570004FF0FF387642B54201DD2C4600E034468C
:102580004FF0000B21E0019A91B2029A90B2FFF74E
:1025900047F8049828440490039830440390049822
:1025A000A04205DD0498001B049002983844029074
:1025B0000398A04205DD0398001B03900198404456
:1025C00001900BF101001FFA80FB601C8345DADDEE
:1025D00009B0BDE8F08F2DE9F04104460D461646DE
:1025E0001F462B46324629462046FFF79CFF3B46B6
:1025F000224629462046FFF796FF3B46324639469B
:102600002046FFF790FF3B46324629463046FFF70B
:102610008AFFBDE8F081F8B504460D4616461F4610
:10262000B94800883B463246294600902046FFF7CD
:1026300043FFF8BD2DE9F04104460D4616461F46FE
:10264000DDF81880EA1991B2A21990B24246FFF75C
:1026500027FFEA1991B2A21B90B24246FFF720FF72
:10266000EA1B91B2A21990B24246FFF719FFEA1B8A
:1026700091B2A21B90B24246FFF712FFAA1991B283
:10268000E21990B24246FFF70BFFAA1991B2E21B82
:1026900090B24246FFF704FFAA1B91B2E21990B232
:1026A0004246FFF7FDFEAA1B91B2E21B90B24246E2
:1026B000FFF7F6FEBDE8F0812DE9FF4F81B08246BD
:1026C00017469846DDF838B0002445464FEA4800E2
:1026D000C0F10306BBF1000F1FD01BE0A14608E0CC
:1026E0004B462246009750460299FFF7A3FF09F197
:1026F0000109A945F4DD002E04DA042000FB046082
:10270000861D06E0601B042101FB006000F10A0643
:102710006D1E641CAC42E1DD18E015E02B4622463C
:10272000009750460299FFF785FF002E04DA042037
:1027300000FB0460861D06E0601B042101FB0060B5
:1027400000F10A066D1E641CAC42E7DD05B0BDE871
:10275000F08F2DE9F04704460D4616461F46DDE989
:1027600008893B46324629462046FFF7DCFE4B46A9
:10277000424639463046FFF7D6FE2B4622464946AA
:102780004046FFF7D0FEBDE8F08702880B88038043
:102790000A8070472DE9FF4F85B000260027BDF85D
:1027A0001800BDF82010884207DD08A906A8FFF729
:1027B000ECFF07A905A8FFF7E8FFBDF82000BDF86A
:1027C0004C10884207DD08A913A8FFF7DEFF07A910
:1027D00012A8FFF7DAFFBDF81800BDF820108842F4
:1027E00007DD08A906A8FFF7D0FF07A905A8FFF78E
:1027F000CCFFBDF81800BDF84C10884238D1BDF8A8
:10280000140003900490BDF81C00BDF8101088421D
:1028100003DABDF81C00049008E0BDF81C00BDF808
:102820000C10884202DDBDF81C000390BDF8480082
:10283000BDF81010884203DABDF84800049008E0A3
:10284000BDF84800BDF80C10884202DDBDF8480014
:1028500003902D4800880090BDF81830BDF80C207A
:102860001946BDF81000FFF727FE09B0BDE8F08F4C
:10287000BDF81C00BDF81410A0EB010BBDF8200042
:10288000BDF81810401A0290BDF84800BDF81410A9
:10289000451ABDF84C00BDF81810A0EB0109BDF8B1
:1028A0004800BDF81C10A0EB010ABDF84C00BDF8B3
:1028B0002010401A0190BDF82000BDF84C1088424D
:1028C00002D1BDF8208004E0BDF82000401E1FFAB0
:1028D00080F8BDF818402CE0029896FBF0F0BDF8A7
:1028E0001410084480B2049097FBF9F0BDF814105E
:1028F000084480B203905E442F44BDF81000BDF838
:102900000C1003E0080100202E000020884203DDA7
:1029100003A904A8FFF739FFFE480088234600906A
:10292000BDF80C202146BDF81000FFF7C5FD601C66
:1029300084B24445D0DDBDF82000201A00FB0AF621
:10294000BDF81800201A00FB05F727E0019896FB58
:10295000F0F0BDF81C10084480B2049097FBF9F029
:10296000BDF81410084480B2039056442F44BDF8BB
:102970001000BDF80C10884203DD03A904A8FFF77E
:1029800004FFE448008823460090BDF80C2021464F
:10299000BDF81000FFF790FD601C84B2BDF84C003C
:1029A0008442D3DD00BF60E72DE9FF4F83B081464D
:1029B0008A469346DDE91064D64800880290A6F165
:1029C0002000C6B204EBD47009EB6000401E82B256
:1029D0000AEB0400401E83B2514648460194FEF7BC
:1029E000EBFD129850BB002525E00C2C07D106EB1F
:1029F0004600C94901EB800010F8058004E0C74893
:102A000000EB061010F8058000270DE008F001002B
:102A100018B15846FEF7BDFD02E00698FEF7B9FD75
:102A20004FEA6808781CC7B204EBD471B7EB610FAA
:102A3000ECDB681CC5B2A542D7DB2DE0002529E000
:102A40000C2C07D106EB4600B34901EB800010F8CF
:102A5000058004E0B14800EB061010F8058000275F
:102A600011E0AC48A0F800B008F0010038B10AEB62
:102A7000050291B209EB070290B2FEF7D1FD4FEAD1
:102A80006808781CC7B204EBD471B7EB610FE8DBC0
:102A9000681CC5B2A542D3DB9E4902980880A048B5
:102AA0004088401E83B29E480088401E82B20021AA
:102AB0000846FEF781FD07B0BDE8F08F2DE9FE4323
:102AC00006460F4615461C46DDF828801DE0944852
:102AD0000088401EB04204DB91484088401EB84246
:102AE00001DABDE8FE8320788DE821018D48038856
:102AF0008848028839463046FFF756FF284605EBDE
:102B0000D07106EB61018EB2641C20787E2802DC55
:102B100020782028DBDA00BFE3E710B50246012069
:102B200000E050430B1EA1F10104E1B2F9D110BD48
:102B30002DE9FF4F83B0074691461E46109C4FF08B
:102B4000000A002543E0701B401EC1B20A20FFF7B7
:102B5000E4FFB9FBF0F00A21B0FBF1F201FB12082F
:102B6000BAF1000F1BD1701EA84218DDB8F1000F9A
:102B700013D100202021A346CDE90014029004EBDC
:102B8000DB71491001FB057188B266490B88614908
:102B90000A880499FFF708FF17E04FF0010A0021A7
:102BA00008F13000C0B2A346CDE90141009004EB2A
:102BB000DB71491001FB057188B25A490B885549F0
:102BC0000A880499FFF7F0FE00BF681CC5B2B54241
:102BD000B9DB07B0BDE8F08F2DE9FC5F05468846FC
:102BE00091469A46DDF830B000953E2001900024D1
:102BF0005FE004EB04104C4911F810009BF8001042
:102C0000884253D104EB0410474901EB400040785F
:102C10009BF80110884249D108F10F0083B205F1F9
:102C20000F0082B241462846FEF7C6FC00263BE074
:102C3000002734E00D9890B904EB04103A4901EBF9
:102C40004000801C805D80213941084018B1484611
:102C5000FEF79FFC21E05046FEF79BFC1DE02D484F
:102C6000A0F8009004EB04102F4901EB4000801CF9
:102C7000805D80213941084018B141462846FEF761
:102C8000CFFC681C85B20098281A102805D1009D39
:102C900008F101001FFA80F803E0781CC7B2082F82
:102CA000C8DB00BF701CC6B2202EC1DB00BF601C99
:102CB00084B2019884429CDB19484088401E83B24C
:102CC00017480088401E82B200210846FEF774FCB7
:102CD000BDE8FC9F2DE9FC5F0546884691469A4673
:102CE000DDF830B0009507200190002476E004EB79
:102CF000840000EB44100D4911F810009BF80010FF
:102D0000884268D104EB840000EB4410074901EBD2
:102D100040000DE02E000020CC3D0008404200089D
:102D20000801002030000020304800086C500008E6
:102D300040789BF8011088424DD108F1170083B20A
:102D400005F1170082B241462846FEF735FC002601
:102D50003FE0002738E00D98A0B904EB840000EBB9
:102D60004410CD4901EB4000801C805D8021394139
:102D7000084018B14846FEF70CFC23E05046FEF729
:102D800008FC1FE0C548A0F8009004EB840000EBAD
:102D90004410C14901EB4000801C805D8021394115
:102DA000084018B141462846FEF73AFC681C85B237
:102DB0000098281A182805D1009D08F101001FFA73
:102DC00080F803E0781CC7B2082FC4DB00BF701C7A
:102DD000C6B2482EBDDB00BF601C84B2019884429D
:102DE00085DBAF484088401E83B2AD480088401E56
:102DF00082B200210846FEF7DFFBBDE8FC9F2DE90B
:102E0000FC5F0546884691469A46DDF830B000954D
:102E10000420019000245FE004EB8410A14911F824
:102E200010009BF80010884253D104EB84109D4998
:102E300001EB400040789BF80110884249D108F12D
:102E40001F0083B205F11F0082B241462846FEF7FB
:102E5000B3FB00263BE0002734E00D9890B904EB6B
:102E60008410904901EB4000801C805D8021394135
:102E7000084018B14846FEF78CFB21E05046FEF7AB
:102E800088FB1DE08548A0F8009004EB841085497C
:102E900001EB4000801C805D80213941084018B161
:102EA00041462846FEF7BCFB681C85B20098281AEC
:102EB000202805D1009D08F101001FFA80F803E0E9
:102EC000781CC7B2082FC8DB00BF701CC6B2802EAA
:102ED000C1DB00BF601C84B2019884429CDB704857
:102EE0004088401E83B26E480088401E82B2002196
:102EF0000846FEF761FBBDE8FC9F2DE9FF4F83B05C
:102F0000064688469146DDE91147109DB2464FF0CE
:102F1000000B71E0BBF1000F40D104EBD471604AAB
:102F20001288A2EB6101B14204DB5D494988091BAB
:102F3000414502DA07B0BDE8F08F2878802802DD2D
:102F40004FF0010B58E028780D2806D108EB04005B
:102F50001FFA80F856466D1C1EE0102C0DDD102166
:102F600028788DE883004A4641463046069BFFF7A5
:102F70001BFD06F1080086B20EE028788DE891006E
:102F80004A4641463046069BFFF70EFD204604EBBD
:102F9000D07106EB61018EB26D1C2DE040480088B7
:102FA000001BB04204DB3E484088001B404500DA6D
:102FB000C0E74FF0000B202C08D1CDE900574A465E
:102FC00041463046069BFFF71AFF12E0182C08D145
:102FD000CDE900574A4641463046069BFFF77AFE48
:102FE00007E0CDE900574A4641463046069BFFF7C9
:102FF000F3FDAD1C301986B2287800288AD100BFB5
:1030000098E72DE9FE4F0E4617469846DDE90D9AE2
:103010000C9C204600F068F885B221490988A1EB94
:10302000C50000EBD071C1F34F0B43463A46314621
:1030300058468DE81006FFF760FFBDE8FE8F2DE9CA
:10304000F04706460F46154607F1270083B206F102
:10305000270082B239463046FEF7AEFA00240AE075
:1030600015F8149005EB440090F8018049EA082017
:10307000FEF78FFA641CB4F5C86FF1DB084840888E
:10308000401E83B206480088401E82B200210846D6
:10309000FEF792FABDE8F0876C5000082E00002081
:1030A00008010020725200080021082115E000F0FC
:1030B00080021AB101220A4B1A6002E00022084B7A
:1030C0001A600022064B083B1A600122054BC3F828
:1030D0008C224206100E4A1ED1B20029E7DC70474E
:1030E0009482404200804042421C10F8011B00299B
:1030F000FBD1801A70470000064C074D06E0E068DF
:1031000040F0010394E8070098471034AC42F6D32E
:10311000FDF73EF8B4540008D454000802E008C893
:10312000121F08C1002AFAD170477047002001E041
:1031300001C1121F002AFBD170470000FFFFFFFFF3
:10314000FFFFFFFFFFFFFFFFFFFFFFFFFFFFFFFF8F
:10315000FFFFFFFFFFFFFFFFFFFFBEF7FFFFDEFFE9
:1031600038C6928C8E6B6E6B107C96AD3CE7FFFF81
:10317000FFFFFFFFFFFFFFFFFFFFFFFFFFFFFFFF5F
:10318000FFFFFFFFFFFFFFFFFFFFFFFFFFFFFFFF4F
:10319000FFFFFFFFFFFFFFFFFFFFFFFFFFFFFFFF3F
:1031A000FFFFFFFFFFFFFFFFFFFF5DEF159D4F6379
:1031B0006C420A328829461925194521E8318E6B5F
:1031C00038C6FFFFFFFFFFFFFFFFFFFFFFFFFFFF0F
:1031D000FFFFFFFFFFFFFFFFFFFFFFFFFFFFFFFFFF
:1031E000FFFFFFFFFFFFFFFFFFFFFFFFFFFFFFFFEF
:1031F000FFFFFFFFFFFFFFFF36A51053104B51539A
:103200000F4B6C3AE93167212519E410A3086200DD
:103210008308CB529AD6FFFFFFFFFFFFFFFFFFFFA0
:10322000FFFFFFFFFFFFFFFFFFFFFFFFFFFFFFFFAE
:10323000FFFFFFFFFFFFFFFFFFFFFFFFFFFFFFFF9E
:10324000FFFFFFFF3CE77063B363B87CF563114396
:103250004D32EA298821261905190519041104118E
:10326000E4108300A308728CFFFFFFFFFFFFFFFF46
:10327000FFFFFFFFFFFFFFFFFFFFFFFFFFFFFFFF5E
:10328000FFFFFFFFFFFFFFFFFFFFFFFFFFFFFFFF4E
:10329000FFFFDBDE4B3AF042356C544BB1322E2A45
:1032A000EB21A92167190519041104110411041156
:1032B00004110519E4104200AF73FFFFFFFFFFFF89
:1032C000FFFFFFFFFFFFFFFFFFFFFFFFFFFFFFFF0E
:1032D000FFFFFFFFFFFFFFFFFFFFFFFFFFFFFFFFFE
:1032E0005DEF09324C32104B8F324F2A2E2ACC1907
:1032F000891989214719051904110411C410C41032
:10330000041104110411E41042003184FFFFFFFF97
:10331000FFFFFFFFFFFFFFFFFFFFFFFFFFFFFFFFBD
:10332000FFFFFFFFFFFFFFFFFFFFFFFFFFFFFFFFAD
:10333000EC5247194C320B2AEC21EC210C22915B08
:10334000EE4A061126190419E410E410A729662193
:10335000A308051904110411E4108200F7BDFFFF52
:10336000FFFFFFFFFFFFFFFFFFFFFFFFFFFFFFFF6D
:10337000FFFFFFFFFFFFFFFFFFFFFFFFFFFF35A581
:103380008308882188218921AA218A216B42718C96
:10339000FFFF728C83080411C4082942FBDE5DEF35
:1033A000EC5A83080411041104118308E831DFFF8B
:1033B000FFFFFFFFFFFFFFFFFFFFFFFFFFFFFFFF1D
:1033C000FFFFFFFFFFFFFFFFFFFFFFFFBEF7C7315C
:1033D000C4102519261947194719A8298A52284ABD
:1033E00055ADFFFFE831A30805194D6B4D6BFFFF8D
:1033F0007DEF4521C410041104110411620076AD63
:10340000FFFFFFFFFFFFFFFFFFFFFFFFFFFFFFFFCC
:10341000FFFFFFFFFFFFFFFFFFFFFFFF96B562000B
:103420000411041905110519C4088B4AB6B55DEFDE
:10343000F7BDFFFF8E6B62002942AA5A0842FFFFC8
:10344000FFFFCC528308041104110411A308AD52EC
:10345000FFFFFFFFFFFFFFFFFFFFFFFFFFFFFFFF7C
:10346000FFFF1CE7FFFFFFFFFFFFFFFF4E63620050
:10347000041104110411E41062008E63FFFFFFFFCA
:10348000FFFFFFFFCF730100F39C2C6396B5FFFF96
:10349000FFFF2D5B8300041104110411E410672168
:1034A0003DEFFFFFFFFFFFFFFFFFFFFFF8BDB7B5D9
:1034B0009EEFCB52B394FFFFFFFFDFFFE831A3087D
:1034C0000411041104110411A3084942FFF7FFF786
:1034D000FFFFFFFF6A4A01007284FFFFFFFFFFF753
:1034E000DFEF093AA30804110411041104110511B6
:1034F00018BEFFFFFFFFFFFFFFFFFFFFF07B620033
:10350000E831C731410035A5FFFF5DEF4621C4100A
:103510000411041104110411E410A308769DFFF7AF
:10352000FFFFB7ADA308A308C7319EE7FFF7FFF77A
:1035300076A5A308E4100411041104110511051166
:1035400035A5FFFFFFFFFFFFFFFFFFFFDBDEA72922
:103550008300C410C410C4101CE79EEF0511E410D2
:1035600004110411041104110419C408E510D16BED
:10357000D16BC5086400A50843002B32779DB38446
:103580002519C41004110411041104112519260968
:10359000359DFFFFFFFFFFFFFFFFFFFFFFFFAF7343
:1035A00062000419051982000D5B8E9B62100511E3
:1035B000041104110419E41085000511C439815A5D
:1035C000407B229C43AC03A4839B82728249C21835
:1035D000A400C500E4100419041105194719671166
:1035E000EC5ABEFFFFFFFFFFFFFFFFFFDFFFDBDE49
:1035F000C410E41004110511A41801C08388E4006C
:1036000005190419C5084421438323D542FEE4FE6D
:1036100027FF07FFA4FE64FE03FEA3FDE2FC42ECCD
:1036200083B32462E510C40804192619A819872158
:103630000090D3BCFFFFFFFFFFFFFFFFDFFFFFFF97
:10364000107C420005190511832801D044F8A348D5
:10365000E400C508445A02EDE2FD02FE66FE74FF76
:10366000B8FF73FFE7F6A6F645F6A4F5C3FC62FCC7
:10367000C2FCC2FCE3CBC449061188198701A4909F
:1036800001F8EC9AFFFFFFFFFFFFFFFFFFFFFFFFC7
:10369000BEF7E83183000509824001C023F885F0B8
:1036A000A348A400445A02FD23CCC2DC04FE28FE39
:1036B00048F646F624F6E4F564FDE3FC62FCC2FC41
:1036C00002E402DCE2FCA47A48016701C47824F831
:1036D00002F884B07DE7FFFFFFFFFFFFFFFFFFFF62
:1036E000FFFFDBDE2519A300C43802E022D844F82E
:1036F000A6F8A4786300432183728339829B21F565
:1037000061FD22FDE2FCA2FC42FC42FC42FC22AB39
:103710008341C392045226012519A49844F823F842
:1037200002F8A4D09EEFFFFFFFFFFFFFFFFFFFFFA8
:10373000FFFFFFFF9AD68729A50043B822F823E0B0
:1037400065F8E8F807C983484200A30084006329AC
:10375000A27A62B3A2CB62D302BB828A8339A4006D
:10376000E500E500E508C46064D844F824F823F8CF
:1037700002F88388DBC6FFFFFFFFFFFFFFFFFFFFAD
:10378000FFFFFFFFFFFF3DE7505B083123E843F8F1
:1037900044F065F809F9ABF989D10689A3484218C4
:1037A0000200420061008200620062008300A320E8
:1037B000C450A58885D865F844F844F823F823F860
:1037C00003D08210C7295DEFFFFFFFFFFFFFFFFF60
:1037D000FFFFFFFFFFFFFFFFFFFF6C32A53802D89E
:1037E00023F865F866F8A7F84AF90CFA4DFA4CEA9E
:1037F0000BD2A9B968B147A927B107B907D1E7E842
:10380000C7F8A7F865F865F844F823F803F802D07C
:10381000A3280509C408EC5AFFFFFFFFFFFFFFFFC5
:10382000FFFFFFFFFFFFFFFFFBDE0519C400A741FD
:10383000E6C003F886F8A7F887F886F8C7F829F9EC
:103840008AF9ABF9ABF98BF96AF929F908F9C7F8E4
:10385000A6F886F865F864F823F802F006B1252981
:10386000E400E41025192519149DFFFFFFFFFFFF59
:10387000FFFFFFFFFFFFFFFF96AD62008208359557
:10388000BACE8BA244D025F887F8A7F8C7F8A7F8D6
:1038900087F886F886F886F887F8A7F8A7F8A6F8D4
:1038A00085F865F864F824F064B80D93BBB6CF636F
:1038B00083080411E4106621493A5DEFFFFFFFFF22
:1038C000FFFFFFFFFFFFFFFFD3944200E410BBCEDA
:1038D000FFFFBEE776B5CCAA07C145E045F846F83C
:1038E00066F886F886F886F886F865F845F865F88B
:1038F00065E844D043A8018882903CD7FFEF5595F6
:1039000083080411041105194619B394FFFFFFFF42
:10391000FFFFFFFFFFFFFFFFB394410086215DDF44
:10392000FFFFFFFFFFFFDFE77AC6D3B44EB32AC223
:1039300068D1E6E0A6E8A5E8A5E8E6D888C906A922
:1039400022A802A800A000C800D8F7E5FFE7F8AD5C
:10395000C410E4100411E41005118B4AFFFFFFFFAF
:10396000FFFFFFFFFFFFFFFF55A54100A7295DDF18
:10397000FFF7FFFFFFFFFFFFFFFFFFFFFFEF7DDF11
:10398000DBCE59CEF8CDD7CDF7C579CEFBBEABA2F5
:1039900003F045F842D043E800F072D4FFDF39AEBF
:1039A000E410E4100411E41005118729FFFFFFFF64
:1039B000FFFFFFFFFFFFFFFF59CE830846211CD703
:1039C000FFF7FFFFFFFFFFFFFFFFFFFFFFFFFFFF0F
:1039D000FFFFFFFFFFFFFFFFFFFFFFFFFFEF8BBAC0
:1039E00004F845F862E044F000F88EDBFFDFF8A54C
:1039F000C410E410E4100411E4102519FFFFFFFFC8
:103A0000FFFFFFFFFFFFFFFFBEF78729830839B6DF
:103A1000FFF7DFF7FFFFFFFFFFFFFFFFFFFFFFFFE6
:103A2000FFFFFFFFFFFFFFFFFFFFFFFFBEE74ABAF9
:103A300003F845F864F844F800F86EE3FFD7F48C17
:103A400083080411E410E410E4100519FFFFFFFFE0
:103A5000FFFFFFFFFFFFFFFFFFFFEF730000728418
:103A6000FFEFBEEFDFFFFFFFFFFFFFFFFFFFFFFFE7
:103A7000FFFFFFFFFFFFFFFFFFFFFFFFDFE78BBA47
:103A800003F845F845F823F800F8D3D4FFD74E5B88
:103A90002100293A55A58308C4102519FFFFFFFF0F
:103AA000FFFFFFFFFFFFFFFFFFFFFBDEA308E83183
:103AB0009EDF9EE7BFEFFFFFFFFFFFFFFFFFFFFF60
:103AC000FFFFFFFFFFFFFFFFFFFFFFFFFFF751BCFF
:103AD00002E003F803F043E0ECC27ECFFCBE4621D7
:103AE0002100D394FFFF518400008729FFFFFFFFCF
:103AF000FFFFFFFFFFFFFFFFFFFFFFFF51840000FD
:103B0000F48CFFEF9EE7BFEFDFFFFFFFFFFFFFFF3C
:103B1000FFFFFFFFFFFFFFFFFFFFFFFFFFFF3DDF97
:103B200055BD52BC72BCB7B55DC7FFDFF06B00007E
:103B3000093ABFF7FFFFFFFF149D55A5FFFFFFFFE9
:103B4000FFFFFFFFFFFFFFFFFFFFFFFFFFFFAC4A8D
:103B5000A408BBBEDFE77EE7BEEFDFF7DFFFFFFFB6
:103B6000FFFFFFFFFFFFFFFFFFFFFFFFDFFFDFF7AD
:103B7000FFEFDFDFBFD79ED7DFDFD8A58308261191
:103B8000DBD6FFFFFFFFFFFFFFFFFFFFFFFFFFFF92
:103B9000FFFFFFFFFFFFFFFFFFFFFFFF79EE8BDC63
:103BA0002131A9213DCFBFDF7EDF9EE7BEEFBFEF12
:103BB000DFF7DFF7DFF7DFF7DFF7BFEFBEEF9EE7F7
:103BC0007EDF5ED75ED7DFDF9AB626194208EDA307
:103BD000BFFFFFFFFFFFFFFFFFFFFFFFFFFFFFFF35
:103BE000FFFFFFFFFFFFFFFFFFFF74DDC0DB00FEF5
:103BF00042EE024289217BB6DFDF7ED77EDF7EDFA9
:103C00009EE79EE79EE79EE79EE77EDF7EDF5DD72D
:103C10005DD79EDFFFE7F8A50711E31802C560FD39
:103C2000E6D3DBEEFFFFFFFFFFFFFFFFFFFFFFFF1E
:103C3000FFFFFFFFFFFFFFFF9EF784BAC1FC42FEBC
:103C400082FEA2FE8183452174745EC7DFDF7ED7CA
:103C50005ED75DD75ED75ED75DD75DD75ED79EDF77
:103C6000FFE73DC7F1638408425226E629FF86FE3E
:103C7000E0F36AC3FFFFFFFFFFFFFFFFFFFFFFFF50
:103C8000FFFFFFFFFFFFFFFF18DEC1D2A2FD22FEF4
:103C900042FE42FE62FEE2D4416A494253743BA6B0
:103CA0003EC7BFD7BFD7BFD7BFDFBFD73EC71AA654
:103CB000F263A729824122B462FE83FEAAFE0FFFAF
:103CC00067FD63BA3CEFFFFFFFFFFFFFFFFFFFFF52
:103CD000FFFFFFFFFFFFFFFF9AE680D221FDC2FD3D
:103CE000E2F5C2F582F582FD62FD61DC219B846A0A
:103CF000E96A2C63AF6311746E632C63895A0452B2
:103D0000817AC2CBE2FC62FD82FDC2FDC2FDE4FD10
:103D100024FD62CA1CE7FFFFFFFFFFFFFFFFFFFF5D
:103D2000FFFFFFFFFFFFFFFFFFFFB1CC81D2C0F31A
:103D3000C1FC02FD02FDE2FCC2FCC2FC81FC80FB76
:103D4000C0C9A48135AD59CE719C218100DAA1FB97
:103D500082FCA2FC82FCA2FC02FD22FDE2FC00FC33
:103D600060DA90CCFFFFFFFFFFFFFFFFFFFFFFFFC9
:103D7000FFFFFFFFFFFFFFFFFFFFFFFF59DE0DC447
:103D800006CBE4D203DB03DBE3DAC3D2A4C209B37C
:103D9000D2BC9EF7FFFFFFFFFFFFFBE60EB4A6BA03
:103DA00083D2E3E202EB22EB22E303DBE4D26AC339
:103DB000B6D5FFFFFFFFFFFFFFFFFFFFA85400087E
:103DC0009C5400088C5400087C540008000000003B
:103DD00000000000000000000000040404040404CB
:103DE0000004000000140A0A0000000000000000A7
:103DF000000014143F140A3F0A0A000000041E15B4
:103E000005060C14150F0400000012150D0A142CE1
:103E10002A1200000000040A0A1E151509360000C7
:103E20000002020100000000000000000020100855
:103E300008080808081020000002040808080808FC
:103E40000804020000000004150E0E150400000016
:103E500000000404041F040404000000000000002B
:103E6000000000000002020100000000001F00002E
:103E70000000000000000000000000000002000040
:103E800000100808080404020202010000000E11DC
:103E900011111111110E00000000040604040404A5
:103EA000040E000000000E1111080402011F0000A2
:103EB00000000E11100C1010110E00000000080C74
:103EC0000A0A091E0818000000001F01010F101047
:103ED000110E000000000E09010F1111110E00005B
:103EE00000001F09080404040404000000000E116F
:103EF000110E1111110E000000000E1111111E10F3
:103F0000120E000000000000040000000004000089
:103F1000000000000004000000040400002010085D
:103F20000402040810200000000000001F00001F11
:103F30000000000000020408102010080402000025
:103F400000000E11110804040004000000000E110E
:103F50001915151D011E0000000004040C0A0A1E9C
:103F60001233000000000F12120E1212120F000086
:103F700000001E1101010101110E000000000F12CE
:103F800012121212120F000000001F120A0E0A0273
:103F9000121F000000001F120A0E0A020207000092
:103FA00000001C1201013911120C00000000331234
:103FB000121E12121233000000001F040404040435
:103FC000041F000000003E08080808080809070050
:103FD000000037120A060A0A123700000000070222
:103FE00002020202223F000000001B1B1B1B1515D2
:103FF0001515000000003B1216161A1A12170000C1
:1040000000000E1111111111110E000000000F120D
:10401000120E02020207000000000E11111111170A
:10402000190E180000000F12120E0A1212370000AB
:1040300000001E1101060810110F000000001F15DE
:1040400004040404040E00000000331212121212C1
:10405000120C000000003312120A0A0C04040000C3
:1040600000001515150E0A0A0A0A000000001B0AB6
:104070000A04040A0A1B000000001B0A0A040404C4
:10408000040E000000001F0908040402121F0000B3
:10409000001C04040404040404041C0000020202C2
:1040A0000404080808100000000E080808080808A2
:1040B00008080E0000040A000000000000000000D4
:1040C00000000000000000000000003F00040000AD
:1040D000000000000000000000000000000C121CA6
:1040E000123C000000000302020E1212120E000029
:1040F00000000000001C1202021C0000000018104A
:10410000101C1212123C000000000000000C121ED5
:10411000021C000000003804041E0404041E0000F9
:1041200000000000003C120C021E221C00000302D2
:10413000020E1212123700000000040000060404F0
:10414000040E000000000800000C0808080808071A
:1041500000000302023A0A0E1237000000000704B2
:1041600004040404041F000000000000000F1515E3
:104170001515000000000000000F12121237000099
:1041800000000000000C1212120C000000000000E1
:10419000000F1212120E020700000000001C121283
:1041A000121C103800000000001B0602020700006D
:1041B00000000000001E020C101E000000000004A1
:1041C000040E04040418000000000000001B12127A
:1041D000123C0000000000000037120A0C0400002E
:1041E000000000000015150E0A0A00000000000083
:1041F000001B0A040A1B0000000000000037120A1E
:104200000C04040300000000001E0804041E00004B
:104210000018080808040808080818000808080812
:10422000080808080808080800060404040804042C
:104230000404060002251800000000000000000031
:10424000000000000000000000000000000000006E
:1042500000000008080808080808000018180000F6
:1042600000486C2412000000000000000000000064
:104270000000002424247F1212127F121212000068
:104280000000081C2A2A0A0C1828282A2A1C0808B8
:1042900000000022251515152A58545454220000F8
:1042A0000000000C1212120A76252911916E0000EE
:1042B00000060604030000000000000000000000EB
:1042C00000402010100808080808081010204000BE
:1042D0000002040808101010101010080804020052
:1042E0000000000008086B1C1C6B080800000000A0
:1042F00000000000080808087F08080808000000FF
:10430000000000000000000000000000060604039A
:104310000000000000000000FE000000000000009F
:104320000000000000000000000000000606000081
:104330000000804040202010100808040402020001
:104340000000001824424242424242422418000027
:10435000000000080E08080808080808083E0000C9
:104360000000003C4242422020100804427E00002F
:104370000000003C4242201820404042221C000025
:10438000000000203028242422227E2020780000F3
:104390000000007E0202021A26404042221C000059
:1043A000000000382402021A26424242241800006B
:1043B0000000007E222210100808080808080000EB
:1043C0000000003C4242422418244242423C000089
:1043D000000000182442424264584040241C00005F
:1043E000000000000000181800000000181800006D
:1043F00000000000000000080000000000080804A1
:1044000000000040201008040204081020400000B2
:104410000000000000007F0000007F00000000009E
:1044200000000002040810204020100804020000D0
:104430000000003C424246402010100018180000C6
:104440000000001C225A555555552D42221C0000D3
:104450000000000808181414243C224242E700001F
:104460000000001F2222221E22424242221F000080
:104470000000007C4242010101010142221C0000B7
:104480000000001F2242424242424242221F0000DC
:104490000000003F4212121E12120242423F000070
:1044A0000000003F4212121E121202020207000018
:1044B0000000003C2222010101712122221C000087
:1044C000000000E7424242427E42424242E7000090
:1044D0000000003E0808080808080808083E000018
:1044E0000000007C10101010101010101010110F90
:1044F0000000007722120A0E0A1212222277000010
:10450000000000070202020202020202427F0000D3
:1045100000000077363636362A2A2A2A2A6B00000F
:10452000000000E346464A4A525252626247000087
:104530000000001C2241414141414141221C000038
:104540000000003F424242423E02020202070000D7
:104550000000001C2241414141414D53321C60008A
:104560000000003F4242423E1212222242C7000097
:104570000000007C4242020418204042423E0000FB
:104580000000007F4908080808080808081C000007
:10459000000000E74242424242424242423C0000A6
:1045A000000000E7424222242414141808080000E6
:1045B0000000006B49494949555536222222000026
:1045C000000000E7422424181818242442E70000C1
:1045D000000000772222141408080808081C0000B4
:1045E0000000007E2120101008040442423F000019
:1045F000007808080808080808080808080878006B
:104600000000020204040808081010202020404086
:10461000001E1010101010101010101010101E009E
:10462000003844000000000000000000000000000E
:10463000000000000000000000000000000000FF7B
:10464000000608000000000000000000000000005C
:10465000000000000000003C4278444242FC0000A0
:10466000000000030202021A26424242261A0000FB
:10467000000000000000003844020202443800003C
:1046800000000060404040784442424264D800004C
:10469000000000000000003C427E0202423C00009C
:1046A000000000F08808087E08080808083E00009E
:1046B000000000000000007C22221C023C42423C20
:1046C000000000030202023A4642424242E7000072
:1046D0000000000C0C00000E08080808083E00004E
:1046E0000000003030000038202020202020221E32
:1046F0000000000302020272120A16122277000062
:104700000000000E0808080808080808083E000015
:10471000000000000000007F9292929292B7000089
:10472000000000000000003B4642424242E7000019
:10473000000000000000003C42424242423C0000B7
:10474000000000000000001B26424242221E020719
:10475000000000000000007844424242447840E0FB
:1047600000000000000000774C040404041F000057
:10477000000000000000007C42023C40423E00007D
:10478000000000000008083E080808080830000083
:1047900000000000000000634242424262DC000070
:1047A00000000000000000E7422424140808000074
:1047B00000000000000000EB49495555222200008E
:1047C000000000000000007624181818246E000075
:1047D00000000000000000E7422424141808080725
:1047E000000000000000007E22100808447E000047
:1047F00000C0202020202010202020202020C000C9
:1048000010101010101010101010101010101010A8
:104810000006080808080810080808080808060024
:104820000C32C20000000000000000000000000088
:10483000C9EE000027FC140414A481104208404073
:10484000104017FC2040E0E0215022482C46204038
:104850000040DBDA11041124112411241124FD2459
:10486000112411241124112411241D24E124422493
:1048700002040404CAD00200010000007FFC010011
:10488000010001003FF82108210821082108212802
:10489000211001000100C8AB0000000001800240AF
:1048A0000430180860061FF90100010001003FF8FC
:1048B0000100010001007FFEB6AF000000000020F3
:1048C0003E20007C002200227F2210221022122291
:1048D0001222224223423D82009CB5E700000100E3
:1048E00001001FF0610C410441047FFC41044104BC
:1048F00041047FFC01000102010201FCD7D300004A
:1049000000003FF8001000600080010000807FFE82
:104910000040004000200020002018400780BCBC60
:1049200010201020102013FEFC201020102015FC59
:1049300018843088D0481050102010505188260616
:10494000CAF501000120011001107FFC0380054021
:1049500005400920111021084104810201000100D5
:104960000100D3D002000200FFFE040004000FF09B
:10497000081018102FF0481088100FF008100810B9
:1049800008500820CFDE00007BF84A08520853F890
:10499000620852084BF84A444A486A305220421092
:1049A000428843064200B9AB00800480048008407E
:1049B000084010202010420882060400044008200D
:1049C00010203FF010100000CBBE00003FF80008A0
:1049D00000087FE8000800081F88108810881088E9
:1049E00010881F88108800280010BBB60080008047
:1049F000FC8004FC050449082A401440104028A00B
:104A000024A045108110020804040802D3AD000060
:104A10002080133C122402240224F22412241224A3
:104A200012B4132812201020282047FE0000C4FAD8
:104A30000900090011FC32045448995011481244ED
:104A400014441140108002005104511290120FF0D2
:104A5000B4BF00000020102013FE202026244A248A
:104A60007A241224222423FC7C200022042278228F
:104A7000003CC9AB0000000004000FF01020202013
:104A80007FFC20842084208420843FF820002002A2
:104A900020021FFECCEE00000000204023FE20403C
:104AA00079FC220423FC220423FC220423FC3A0484
:104AB00065FA01980204B3E40000010001007FFEE2
:104AC00002200410040808043FFC0442044004408F
:104AD000044208421042607EBED800000000207EE2
:104AE0003E804880488048FE48827F8208820C824F
:104AF00014FA12842280218040FED0CE00000000F3
:104B00007F842208223022C0220222047FC8223061
:104B100022C222022204220822304040BBAD000003
:104B200000007FFE00000FF0111011101110511243
:104B30005FF25112511251124FF240027FFCD4B277
:104B4000000000007FFE47E24812481247E24FF2A1
:104B5000501250125112511242924472580A3FFCA4
:104B6000CDBC000000003FFE440247F24C225362DD
:104B7000408243625E1A41824062430240C2402248
:104B80003FFCC6AC000000402040204020403FFEDB
:104B90002000200020003FE02010201020102010D6
:104BA00040104010CFD4000000003FFC200420043F
:104BB0003FFC200420041FF82444144814481448DF
:104BC0000C5004407FFECABE000000003FFC000005
:104BD000000000007FFE0080089008881088108484
:104BE0002084208240820780B2CB00000020082071
:104BF0007FFE002000783F881108089009207FFE82
:104C0000018003400D30310C4002B5A500000010BA
:104C1000081004203FF8210421043FFC2104210452
:104C20003FF801007FFE010001000100D6D0000026
:104C30000100010001003FFC2104210421042104A2
:104C4000210421043FFC0100010001000100D3A266
:104C50000000000008207FFE0820092001003FF826
:104C60002108210821081FF4014002200C10700EB9
:104C7000CEC400000100010000803F7C0810081035
:104C800004100420022002400180018002601C18F0
:104C9000E006D7DB00000000102011FE22022202F5
:104CA00049FC5800300013FE2528792401240D24E6
:104CB000722202A2BACF000000000180024004303C
:104CC000180860061FF800001FF8200420042004C4
:104CD000200420041FF8C1C10000010001007FFE74
:104CE00000003FF820083FF83FF8400647C248243C
:104CF000082008221022603EB6C800000000008094
:104D00003FFE44105FFC4410441043F040005FF845
:104D10004408423041C04360BC1EB2E200000000C3
:104D200067C2145205520552C5522552055205520A
:104D300015521752228222424442483ECAD40000F1
:104D400000002014101417FE00120010601013F061
:104D5000109010901090149214EA1F0A0006B3CC21
:104D60000000000019FE7202120212027DFC1800FF
:104D70001BFE3420502053FE10201020102013FE64
:104D8000D0F20000000000803FFE400047FC4208D7
:104D9000413040C05FFE40424042404440484040B5
:104DA0004440B5F70000000023FE122202FA02225E
:104DB000E22212FE1272128A128A128A16BA1A425B
:104DC0001202040EB9E200000100010411080908F2
:104DD000091009207FFE04400440044004400842BA
:104DE00008421042607CB0E60000000048FE490026
:104DF000490049007EFE41824144794445284528C6
:104E00004510452846440382C8A800001000100041
:104E100013FC7D0411041904188434885048505040
:104E200010201050108813041402CBF90000000069
:104E30003F7C204020403E40227E224422442244A7
:104E40003E8420842084408441044204C6C1000082
:104E50003FF8200820083FF8241022202FF82220B5
:104E600022203FFC22204220442084200820C4BB72
:104E700004407FFC04401FF010101FF010101FF0C2
:104E80000400FFFE11103FF8D1161150112001004F
:104E9000D0FD2080108010FE0100FE0021FC2024A7
:104EA0003C2424A024A024BC24A024A04560553E7A
:104EB0008A00D7AA202020202020FDFC402050403E
:104EC00093FEFC40108011FC1C04F0885050102010
:104ED00010101010BFAA00007FFC08200820082036
:104EE00008200820FFFE08200820082008201020A5
:104EF000102020204020D4B4000027FE14201440AD
:104F000085FC450445FC150415FC2524E42024A853
:104F100029242A2230A00040D2BA0080204017FE67
:104F200011208120423C4244166412942348E248F6
:104F300022302220225022880306BEA70FE008203C
:104F400008200FE0082008200FE000007EFC4284CB
:104F500042847EFC428442847EFC4284CDF8000080
:104F60007FFC40044004421452944A544424442494
:104F70004A544A5452946104400440144008D5BE37
:104F80001020082008207E20003E042044204420D9
:104F900025FC290429040F04F104410401FC010447
:104FA000B0B410401020102013FEFA021444104038
:104FB0001BFE3088D088110810D010201050508867
:104FC0002304BCFC201020103B7C211441FE7A14E9
:104FD000A27C2710F97C251025FE22102A1035000E
:104FE00028FE0000D0A310401020102011FEFC006D
:104FF000108831043A025488508890501050102084
:10500000105010881306D7BC01404120212023FEF8
:10501000022016201BFC1220222023FCE22022204A
:10502000222023FE22000200B4A520202020782088
:1050300049FC91247D24552455247DFC552454207D
:105040007C28542457FE45028C00C3FE1110111019
:1050500017FC1110FC0013F8120817F81A0833F89F
:10506000D04017FC10A0111052082406C9EE000011
:10507000000000001000000800080C7FFC04401035
:1050800001C8A002186042301832231812C300145D
:10509000030004030C047FF0080F80080B40781312
:1050A0006018332018631818831C190308180300AC
:1050B000000300000000DBDA000000000000041024
:1050C0000C04180C04108C04108C04108C04108C2C
:1050D00004D08C3F108C04108C04108C04108C04B1
:1050E000108C04108C04108C05F08C0E208C782011
:1050F0008C20408C00808C01000C02000C00000011
:10510000CAD00000000000000030000018000018A5
:105110000800001C1FFFE000180000182007FFF027
:10512000041820041820041820041820041820044F
:1051300018200418200418200418200418E004186B
:1051400040001800001800000000D6D00000000049
:105150000000000000000000001800001800001807
:10516000000018003FFFFE30180630180630180601
:105170003018063018063FFFFE30180600180000F1
:1051800018000018000018000018000000000000BF
:1051900000000000CEC4000000000000000000007D
:1051A0003800001C00000600FFFFFF06003006006C
:1051B000300300600300600180C000C18000E30094
:1051C000003600001C0000770003C1E01E003C60B8
:1051D0000007000000000000000000000000B2E234
:1051E000000000000000000000000000400003215B
:1051F000FF33398333118333019B33C19B33719B5D
:1052000033199B33019B33019B33119B3319B33308
:10521000303033306C0330C6036383032E01BE008D
:105220000000000000000000CAD4000000000000E0
:105230000000000000004000D83000CE1800C21C62
:1052400000C001FFFF0000C0F800C01800C019FF37
:10525000C01818401818601918601B18611E183102
:105260001C1FB139F01910000F00000000000000F1
:105270000000D7D600000000000600000003000078
:105280000000C0000001C0C0000107C00001FF0015
:10529000021FFE0007F01C0007C070000F00E000B6
:1052A0000E03F0001C0FF0003C0F70003C00E0000B
:1052B0001800C0000000C0000000C0000000600036
:1052C00000002000000037000001FF00007FF80010
:1052D00007F830001F8030000080300000C0300030
:1052E000006060000018E000000FC0000006000031
:1052F00000000000CCE500000000000000000000FD
:1053000000C0000000E0002001B800703FF800611C
:10531000FFC000C3030001C60600038C060003089B
:105320000C0006080C000E18183F1E101BF31F90EF
:105330003F0700803C1C0190707C019060FE01A042
:10534000C3F801A00FD803A0081803600018034099
:10535000001803C0001803800018030000180000A4
:1053600000180000001000000030000000300000B5
:10537000000000000000B2E2000000000000000099
:105380000000000000000000020C1008071FF804D5
:1053900003BFF00201BC300303EC3003015C600387
:1053A00000D8600300D860038098620361B84307A7
:1053B00071B14306313243063376C3063A64C706F9
:1053C0003EECC0063E78C0063C3040067C700006CD
:1053D00078E060067BFFF006F7C00006E4000006F8
:1053E00040000006000000060000007C00008FF076
:1053F00000007C0000000000CAD400000000000093
:1054000000000000000000003F0000007F8000005E
:105410000180000000C0000000C0000000CE03803A
:1054200000CFFFC000DD41800FFE0007FFFC000C35
:1054300000F000180FC03E19FF40F311BC6083302C
:105440007FE003B1FE20033380200370003003604F
:1054500000100360001807C0000C07C0000407809C
:105460000002010000030000000100000000000035
:10547000000000000000000000000000526F746196
:1054800074696F6E3A32373000000000526F7461F9
:1054900074696F6E3A31383000000000526F7461E9
:1054A00074696F6E3A393000526F746174696F6E4F
:1054B0003A300000D45400080000002040000000F2
:1054C0001C3100081455000840000020D8040000DA
:1054D0002C310008007A030A0000000000000000E0
:1054E0000102030406070809000000000000000094
:1054F000000000000000010203040102030406078B
:1055000008090000FFFF000000F8E0071F00E0FFAF
:045510001FF8000080
:040000050800018965
:00000001FF
